:020000040800F2
:1000000000500020A567010851680108714F0108E0
:10001000516801085168010851680108000000009A
:10002000000000000000000000000000516801080E
:100030005168010800000000516801085D50010886
:1000400051680108516801085168010851680108A8
:1000500051680108516801086D4F0108694F010896
:10006000654F0108614F01085D4F0108B550010857
:10007000A95001089D5001089150010885500108C0
:10008000795001086D500108516801085168010854
:10009000516801085168010851680108594F010869
:1000A00051680108BD4F010851680108CD4F010892
:1000B000AD4F01089D4F01088D4F01080D500108FB
:1000C0000550010809500108015001085168010854
:1000D00051680108F54F0108E94F0108DD4F01089B
:1000E000554F0108516801085168010800000000DF
:1000F0000000000000000000000000000000000000
:0C01000000000000000000005FF808F1A3
:100110002DE9F04F324CD9B004F1110604F1120868
:1001200004F11300002104F1100537460590C14683
:1001300006912368002B01F0008620680CF08BFEEE
:100140000790002801F0D08520680CF07AFE237B10
:100150008246013B042B04D8DFE803F0070C1C2483
:10016000270024283ED1012337E04D280CBF02236D
:10017000002332E000233C28237302D03E2804D021
:100180007AE02379002B77D102E02379012B73D118
:10019000032322E040284FF000039EBF6373A07347
:1001A00004231AE0E073052317E0637BA17B8B42F5
:1001B00004D25A1C2344627318745DE0E27B04F19C
:1001C00010034A4019448B4203D013F8010B4240FC
:1001D000F9E792450CBF0623002323734CE000BFD0
:1001E0003C0C0020DFF88CB022689BF8003013F044
:1001F000040141D1BAF1230F1AD1134B0120187019
:10020000124B13481A60134B1A609A6010221A732B
:10021000114A586059731148043313600CF0E8FF19
:100220000CF0FCFF9BF8003043F002038BF8003029
:100230000B4B1B7853451FD10A4A0B4B1A600B4AD4
:100240000B4BDA6018E000BFEA3C00201C3B0020AA
:10025000BBCE0008B8150020203B0020D7C2010803
:10026000583B0020EFBEADDEF04F00200400FA0541
:1002700000ED00E0E83C0020237B062B7FF45DAF1F
:100280002379002B41F0308558A8A17B0A90E07BB0
:10029000103104F1100A214418AAADF83800ADF865
:1002A0002C000138CDF830A00992ADF82E300D9118
:1002B000ADF83A30CAEB010AFD2801F20785DFE804
:1002C00010F021012C0134013E014701050D050DFF
:1002D000050D050D050D050D050D050D050D050D8E
:1002E000050D050D050D050D050D050D050D050D7E
:1002F000050D050D050D050D050D050D050D050D6E
:100300008605770B9F037D085E05260B6105350B7F
:1003100071055F0B9C05920BCB05980B51060A01EA
:100320006D06C30C2A060B0CC603B3083C06400C32
:100330001901480BFE02050D050D3C035D08050D76
:100340003006110C050D050D000D4907B106CA0652
:10035000880A050D050DF105C40B0401E60BFD0629
:10036000F006770A4207050D050D050D050D050D73
:10037000420A050D050D050D050D050D050D050DB3
:10038000050D050D050D050D55016301E6011A0268
:10039000C50201019B04C204E102F302010345030B
:1003A0007D03050D5704050DFC039B03D7043F0493
:1003B0001E02050D050D050D580768078207FE0092
:1003C0000E0127070F07050D050D050D050D050D80
:1003D000050D050D050D050D050D050D050D050D8D
:1003E000050D050D050D050D050D050D050D050D7D
:1003F000050D050D050D050D050D050D050D050D6D
:100400005005050D050D050D0305050D050D050D23
:10041000050D050D050D050D050D050D050D050D4C
:10042000050D050D050D050D050D050D050D050D3C
:10043000050D050D050D050D050D050D050D050D2C
:10044000050D050D050D050D050D050D050D050D1C
:1004500020088C0A6408050DE008570A620A4D0955
:100460004F0AE10A0E0819089C09050D8D09050DB2
:10047000050D010A140A2E0A330AF10C050D050DAB
:10048000050D050D050D050D050D050D050D050DDC
:10049000050D050D050D050D050D050D050D510885
:1004A00043055702DD09050D1D0CB507050D050DAA
:1004B000050D050D6C0A050D050D050D3405002211
:1004C00000F07BBD4FF0000ACEE1DFF87CA34FF0D7
:1004D000000B00F005BD4FF0000A01F095BBC04BCA
:1004E0000DF161021B880992FF2BA8BFFF238DF835
:1004F000603017E0BB4B1978117059789B785170B8
:1005000000F06ABE00230DF163011370099101230D
:1005100019215370917001F0DBBBB34909A8042283
:100520000CF088FF012301F0D3BB0E210123517091
:100530000DF1630113700991937001F0C9BB09A813
:10054000AA4904220CF076FFA94B09A81978B3E355
:1005500009A8A8490B220CF06DFF09A8A64908229A
:100560000CF068FF09A8A5490722D9E7E723137013
:10057000A34B09A81B78042153700DF16303099361
:100580000023937000F0F1BD9E4B09A819880CF070
:1005900090FF9D4B09A8B3F8441089B20CF089FF75
:1005A0009A4B09A81B68C3F3C001C3F380028900FA
:1005B00041EA4201C3F340021143C3F3401241EA4E
:1005C000C20103F0100319430CF073FF904B18881D
:1005D00000231A468F498956B1F1FF3F10D04FF2E0
:1005E000FF7E4EFA02FE1EF0010F09D040FA02FE15
:1005F0001EF0010F04D04FF0010E0EFA01F10B4373
:1006000001320C2AE6D1844AD2F800E0002201210E
:1006100091408248084018B111EA0E0F18BF0B43F1
:100620000132202AF3D17E4A127850077D4A48BF12
:1006300043F00103D2F800A00022114610464FF00B
:10064000010E0EFA02FC1CEA0A0F09D01CEA030F85
:1006500018BF0EFA00FE00F1010018BF41EA0E01BA
:1006600001321D2AEBD109A80CF00FFF6E4B09A82F
:100670001A78099B591C09911A706C4B19880CF057
:1006800018FF614B09A8B3F8461000F098BD684BFD
:100690004FF0000A1B89B3F5806F94BF4FF0000B39
:1006A0004FF0030B634B09A85AF803100AF1040A30
:1006B00041FA0BF189B20CF0FCFEBAF10C0FF1D14A
:1006C0004FF0000A5C4B09A833F80A100AF1040A3B
:1006D0000CF0EFFEBAF10C0FF4D14FF0000A574BBB
:1006E00009A833F80A100AF1040A0CF0E2FEBAF184
:1006F0000C0FF4D116E709A85149102210E7002386
:100700004FF00C0A0AFB03FADFF8FCB009A8DBF88B
:10071000602032F80A1003930CF0CBFEDBF8602067
:1007200009A8524451880CF0C4FEDBF8602009A8E7
:10073000524491880CF0BDFEDBF860205244917960
:10074000099A501C09901170DBF860205244D1794D
:10075000099A501C09901170DBF8602009A85244D6
:1007600091680CF092FE039B0133082BC8D1D9E6A7
:1007700000223449505C53180999073201F1010EE7
:10078000CDF824E008700999587801F1010ECDF8F0
:1007900024E008700999987801F1010ECDF824E061
:1007A00008700999D87801F1010ECDF824E008709D
:1007B0000999187901F1010ECDF824E00870099922
:1007C000587901F1010ECDF824E008709979099B60
:1007D000702A03F1010009901970CAD1A2E600BF86
:1007E000A4130020781C00200FC3010814C30108C3
:1007F000E93C002019C3010825C301082EC30108E4
:1008000074080020E63C0020B8150020300C0020C1
:10081000AC190020C8A50108081A0020C0F11F1A51
:10082000E83C0020380C0020721C00206A210020C7
:10083000040D002000160020141B00200C160020C0
:100840008808002004080020D81500204FF0000A76
:10085000AB4B09A833F80A100AF1020A0CF029FE82
:10086000BAF1100FF4D15DE6A64B1B789A45BFF69E
:1008700059AEA54B09A833F81A100CF01AFE0AF16C
:10088000010AF1E7DFF8B4A209A8BAF800100CF0E9
:1008900010FEBAF8021009A80CF00BFEBAF9041009
:1008A0000A2391FBF3F141E0984B09A819680CF079
:1008B000ECFD974B09A8B3F8641000F080BC09A8C0
:1008C000944B5AE2DFF848A2934ABAF8781092792A
:1008D0000AF1680303EBC200FF29A8BFFF218DF8CE
:1008E000601041684FF6FF7B5945A8BF594621EA81
:1008F000E1710DF1610E09A889B204920393CDF85C
:1009000024E00CF0D6FD854909A809880CF0D1FD3A
:10091000049A039B9AF87A0053F8321050B10A23D4
:1009200059435945A8BF594621EAE17109A889B23E
:1009300000F045BC01F30F01F8E7794B99785B783B
:1009400011700DF1620109915370EBE5754B0DF1DA
:1009500061011B681A7809918DF860205B780DF1B0
:10096000620209928DF8613000226E4B19681144C1
:1009700008790999013201F1010E032ACDF824E02A
:100980000870F2D11A68D179099A501C0990117037
:100990001A689178099A501C099011701A68D178D8
:1009A000099A501C099011701A6809A8518903937B
:1009B0000CF07FFD039B1B681A7A54E100235A4A0E
:1009C0001168C85C099901F1010ECDF824E00870A6
:1009D00011681944887A099901F1010ECDF824E0D3
:1009E000087012681A44117D099A0133501C0A2BB1
:1009F00009901170E3D195E509A84C492F228FE5A4
:100A00004FF0000A4A4B1B6813F82A0003EB8A0BCD
:100A100007F066FE099B4279591C09911A70099BDF
:100A20009BF80120591C09911A70099B9BF8022020
:100A3000591C09911A70099B9BF803200AF1010ABD
:100A4000591CBAF1140F09911A70DBD16AE5002222
:100A500006215143374BDDF824E018680EF1010AF6
:100A6000431893F805C0CDF824A08EF800C0405C70
:100A70000999013201F1010ECDF824E008700999BD
:100A8000587801F1010ECDF824E0087009999878A2
:100A900001F1010ECDF824E008700999D87801F130
:100AA000010ECDF824E008701979099B0C2A03F196
:100AB000010009901970CBD134E54FF0000A0122F2
:100AC00002FA0AF21C4B1B681A4212D05FFA8AF033
:100AD00007F006FED0F800B0584617F0BDFE5946A4
:100AE000024609A80CF0A6FC099B5A1C09923B225D
:100AF0001A700AF1010ABAF11D0FE0D112E500BF28
:100B00003E1B0020380D0020280E0020E81B00208E
:100B1000B81500204C0F0020980800205620002017
:100B2000842000209C190020F00C0020D4A501088E
:100B3000340D002098200020380C0020AE19002031
:100B40004FF0000A012202FA0AF2AD4B1B681A426A
:100B500008D05FFA8AF007F0C3FD099B4279591C5F
:100B600009911A700AF1010ABAF11D0FEAD1D9E40C
:100B7000DFF8C8B2DFF8C8A209A8BBF810100CF063
:100B800098FC09A8BAF800100CF093FC09A8BAF870
:100B900002100CF08EFC09A8BAF804100CF089FCC5
:100BA000984B09A859880CF084FC974B099A19783E
:100BB000501C09901170099A511C09910021117063
:100BC0005A78099B581C09901A70904B099A93F80F
:100BD0007A0002F1010ECDF824E01070099A9BF81A
:100BE0000B0002F1010ECDF824E01070099A501CA0
:100BF00009901170DB6FB1E0854BDFF848A21B78DC
:100C00000DF1620103F002031370824B09911B780E
:100C1000DAF80010537009A80CF037FCDAF8041069
:100C2000DFF8E8A109A80CF030FC09A8BAF8801098
:100C30000CF03FFC09A8BAF882100CF03AFC09A8A5
:100C4000BAF88410BBE2DFF8C4A109A8BAF886108C
:100C50000CF02FFC09A8BAF888100CF02AFC9AF8BE
:100C60008A2002F00102099B591C099100F0BEBEC6
:100C70002B780C960BB9684802E0102B03D167481B
:100C800090E8020402E04FF0000A51460DF16100C5
:100C90001370099009A80CF0F8FB09A851460CF054
:100CA000F4FB5F4B09A819680CF0EFFB09A80021C1
:100CB0000CF0FFFB09A800210CF0FBFB099B5A1C60
:100CC0000992002200F092BE504B0DF1610193F8A1
:100CD0008B300991137000234C4A92F88B108B4291
:100CE000BFF620AC02F18C01585C099901F1010EAC
:100CF000CDF824E0087002F19C01585C099901F1DB
:100D0000010ECDF824E0087002F1AC01585C09999D
:100D1000BC3201F1010ECDF824E00870995C099A0B
:100D20000133501C09901170D6E74FF0000A3D4B7B
:100D300009A833F80A100AF1020A0CF0BAFBBAF15A
:100D4000080FF4D1FFF7EEBBDFF8FCA009A8DAF832
:100D5000003059880CF0ADFBDAF8003009A819888A
:100D60002DE2314B09A819680CF08FFB2F4B09A815
:100D700019680CF08AFB2E4B09A81968F5E109A83F
:100D80002C4BFAE7DFF8C4A009A8BAF800100CF061
:100D900090FB09A8BAF802100CF08BFB09A8BAF86E
:100DA00004100CE2DFF8A8A009A8BAF800100CF0B3
:100DB00080FB09A8BAF802100CF07BFB09A8BAF86E
:100DC00004100CF076FB09A8BAF80610F7E1DFF87A
:100DD00084A00DF163019AF80130099113709AF81B
:100DE000003009A853709AF80230BAF804109370D2
:100DF0000CF05FFB9AF8062035E70F4B1B788CE070
:100E0000380C00206D200020210F0020B815002094
:100E1000D90B0020CE200020D0200020DC20002094
:100E2000E41B002094190020E8F7FF1FECF7FF1FD8
:100E3000F0F7FF1FC80500207408002030060020CE
:100E4000A4080020E4200020A8190020F40B0020B2
:100E50007E1C002098080020DFF88CA30DF16101B2
:100E60009AF808300991137009A8BAF814100CF018
:100E700020FB09A8BAF810100CF01BFB09A8BAF85F
:100E800012100CF016FB099B9AF80A20591C0991C4
:100E90001A7009A8BAF816100CF00BFB09A8BAF8DA
:100EA00018108CE1DFF874A30DF162019AF800309C
:100EB000099113709AF8013009A85370BAF802101A
:100EC0000CF0F7FA099B9AF80420591C09911A7042
:100ED00009A8BAF805100CF0ECFA9AF80720C2E657
:100EE000C04B0AF1020A1B789B45BFF61BAB099B5E
:100EF0001AF8022C591C09911A701AF8011C09A839
:100F000001EB810101EB810101F2EE210CF0D1FA3C
:100F10000BF1010BE4E7B44BDB7A0DF161010991B0
:100F200015E10023B04A995C099A0133501C082B43
:100F300009901170F6D1FFF7F5BA4FF0000AAB4AED
:100F4000002352449178AA48C05C814200F00D878A
:100F50000C333C2BF7D10AF1080ABAF1280FEED175
:100F6000FFF7E0BA4FF0000ADFF8B4B209A83BF887
:100F70000A100CF09EFA099A0BEB0A039978501CA0
:100F800009901170DA78099B0AF1040A591CBAF128
:100F9000400F09911A70E7D1FFF7C4BA4FF0000A69
:100FA000944B09A85AF803100AF1040A0CF06DFAE0
:100FB000BAF1800FF4D1FFF7B5BA8F4B062000FBD2
:100FC00002300023099901F1010ECDF824E00A70E6
:100FD000099901F1010ECDF824E00B70099910F880
:100FE00003E0013301F1010C062BCDF824C081F898
:100FF00000E0E7D10132062ADFD10023099A511C13
:10100000099106211170099A511C099113707B4AAC
:10101000995C099A0133501C0B2B09901170EDD18A
:10102000FFF780BA0BF058F9099B40F002005A1CF8
:10103000DFF8CCA109921870BAF8001009A80CF0DA
:1010400024FADAF80C1009A80CF01FFA07F0C0FD1A
:10105000014609A889E00CA80CF0F6F98346594628
:1010600009A80CF012FA09990A9BC1EB030A644B18
:10107000BAF1800FA8BF4FF0800ADB680BEB0A02C1
:101080009A4288BFCBEB030A04910EF0D7FC584676
:10109000049952460AF042FB099B18440990FFF755
:1010A00041BA5849012388781370507008784978FC
:1010B000907019A80990D17000F00ABE4FF0000A94
:1010C0000DF1630309A8514682F800A082F801A03F
:1010D00082F802A009930CF0D8F909A8514644E01F
:1010E000494B4A491B780DF16200033B18BF0123AD
:1010F0001370B1F878300990FF2BA8BFFF2353700D
:10110000434B9B7901EBC301C96E81F310010DE4E0
:101110004FF0000ADFF80CB10A215AF80B3009A889
:10112000594381F3100189B20CF0C3F90BEB0A03A8
:1011300009A859680AF1080A0CF0A7F9BAF1100FCA
:10114000E8D1FFF7EFB90DF16103099300231370A4
:10115000FFF7E8B909A82F490B220CF06BF909A891
:1011600000210CF092F909A800210CF08EF9FFF78C
:10117000D9B9DFF8B4A009A8BAF800100CF099F9B1
:1011800009A8BAF802100CF094F909A8BAF80410EA
:1011900015E0214B0DF161011B6809A81A7809912E
:1011A0008DF860205A780DF1620109918DF8612067
:1011B0009A780DF163018DF862200991D9880CF0BD
:1011C00078F9FFF7AFB9114B93F8BB11117093F891
:1011D000BC1193F8BD3151700DF163010991937009
:1011E000FFF7A0B9380D002030060020583B002042
:1011F00000070020C41600204417002068170020B4
:1012000008000020441C0020C8130020B81500204E
:101210009808002019C30108341B00206D2000200D
:101220008416002020160020381B0020C022BB4856
:10123000002117F0D1FA0020B94A0346B84989784D
:10124000884241DA517AC9073BD592F808E0B5499E
:1012500031F91E10002934DDD2F80CC0B24901EB7F
:10126000031EDCF80410BCF808C0CEF8C011AEF8BC
:10127000C6C100214FF0010E0EFA01FE1EEA0C0E4F
:1012800001D08E4602E001311029F3D1A64901EBCD
:101290000311B1F8C6C1A1F8C4E1A1F8C8C14FF06B
:1012A000020C81F8CBC14FF0480C81F8CAC101F59E
:1012B000E47ED1F8C8110133CEF8041010218EF865
:1012C000061001300832B9E7974A8DF8603082F88D
:1012D00080320DF161020992944A00F0F3BC944B04
:1012E0001B7859073FF51EA928780C9612F006FBCB
:1012F000FFF718B90CA80CF0BDF88E4B1880FFF75B
:1013000011B94FEA5A0A5FFA8AF3122B00F2DE840F
:101310004FF0000B5FFA8AF18B4508D20CA80CF055
:10132000A9F80FAB23F81B000BF1010BF2E7002328
:101330008B42814A06DA0FA830F8130022F8130016
:101340000133F5E74B1E02EB43032232934203D0F5
:10135000002123F8021FF9E7734A012382F8A6321D
:1013600000F0B6BCDFF8ECA10CA8DAF800B00CF085
:1013700081F8ABF80200DAF800A028E12A786F4B78
:10138000CDF830809A703A7820E26D4B00211A68CF
:10139000013A0C9B0131581C0C90184610F802EBD6
:1013A0000A2902F801EF0C905878907203F10300BB
:1013B0000C909B781375ECD1FFF7B4B829780C9694
:1013C000132900F383845F4B97F800C01868CDF8A9
:1013D000308000EB81020023DFF87CE19E449EF820
:1013E00005A0E24504D00833E82BF5D100F06EBC2F
:1013F0009EF8043000F82130059B0C9399F80030DA
:1014000053700C9B591C0C911B7893700C9B591CAE
:101410000C911B780021D37007F0F0F94A4B80F053
:1014200001001870FFF77EB82B780C960B2B00F399
:101430004D8406225A43454B38781968042801EB3D
:101440000203CDF8308000F34184587105980C9068
:1014500099F8000088540C9A511C0C9112785A701B
:101460000C9A511C0C9112789A700C9A511C0C9188
:101470001278DA700C9A511C0C9112781A71FFF7DD
:1014800051B8BAF1090F40F32184314B0C96D3F8CF
:1014900000B02B788BF800300C9B5A1C0C921B78F8
:1014A0008BF8013000230C99022B01F101020C9200
:1014B00091F800E014BF4FF0640C4FF0FF0C0BEB01
:1014C00003000133F44538BFE646032B80F804E0FF
:1014D000E9D18B1C0C934B780331642B28BF642318
:1014E0000C918BF8073053780CA88BF802300C9BCA
:1014F0005A1C0C921B788BF803300BF0BBFFBAF12F
:101500000A0FABF80A003FF40DA8114B1A680C9BA8
:10151000591C0C911B781372FFF704B87817002040
:10152000B00800203E1B0020B815002029FA000852
:10153000E83C0020F01B00203A1800208420002006
:10154000F00C0020340D00204C03002098200020D7
:101550009C190020A819002004A601080CA80BF073
:1015600089FF6FF4AF628318C62B98BFB34BDFF8C7
:1015700008A398BF18820CA80BF07CFFAAF8000003
:101580000CA80BF077FFAAF802000CA80BF072FF72
:10159000AAF804000CA80BF06DFFA94BA9495880CC
:1015A0000C9B5A1C0C921A4612F8030B0C929A7858
:1015B00008704A701A1D0C92D978A34A187982F8DB
:1015C0007A109E490633D2F87CA0C8720C930CA8FE
:1015D0000BF050FFAAF80000FEF7A4BF4FF0000A7E
:1015E0000CA80BF047FF994B23F80A000AF1020AF6
:1015F000BAF1100FF4D1FEF795BFBAF10D0F40F01C
:10160000658395F800B00C96BBF1070F00F25E837E
:10161000DFF834A20CA8DAF8603003930BF02AFF4D
:101620000C2202FB0BFB039B23F80B00DAF8603063
:101630000CA803930BF01EFF039B5B445880DAF861
:1016400060300CA803930BF015FF039BDAF86020C1
:101650005B4498800C9B9344591C0C911A4612F8D9
:10166000021B0CA88BF806100C925B788BF80730E5
:101670000BF0EAFECBF80800FEF754BF2B780C966F
:101680000F2B00F32383724A3878C3EBC3018B1806
:10169000885499F8002006985A706E4A502101FB30
:1016A0000022D17C9970117DD970517D1971917D85
:1016B000D27D59719A7104F118010C9106F020FF46
:1016C000FEF730BF0CA80BF0D5FEDFF8B0A1AAF8EA
:1016D00000000CA80BF0CEFEAAF802000CA80BF03C
:1016E000C9FEAAF80400FEF71DBF5B4B0C96D3F8A9
:1016F00000A02B780CA88AF800300C9B5A1C0C9286
:101700001B788AF801300C9B5A1C0C921B788AF8C3
:1017100002300BF0AFFEAAF80600FEF703BF4F48F9
:101720000BF0DEFFFEF7FEBE474B2A78059983F8E3
:10173000BB213A780C9183F8BC2199F8002083F8FA
:10174000BD21FEF7EFBE0823099A013B511C099108
:1017500013F0FF034FF000011170F5D1FEF7E2BE68
:101760003F4B1B785B073EF5DDAE10F0F3FB19E055
:101770003B4B1B7858073EF5D5AE3A4B4FF4C87239
:101780001A80FEF7CFBE364B1B7859073EF5CAAE1E
:10179000354B1A7842F0040228E1314B1B785A0786
:1017A00000F1948210F03AFC11F0B2FEFEF7BABEDE
:1017B0002E4B1B78012B00F289822D4B2A789A70D0
:1017C0003A781A70059A0C9299F800205A70FEF730
:1017D000A9BE11F065FEFEF7A5BE2A78224B1AB10C
:1017E0001A7842F0020202E01A7822F002021A701D
:1017F000204B3A780CA81A70CDF830800BF024FEFC
:10180000DFF87CA0CAF800000CA80BF01DFECAF897
:1018100004000CA80BF02EFEDFF82CA0AAF8800024
:101820000CA80BF027FE9AF88A30AAF8820043F041
:1018300002038AF88A30FEF775BE00BF300600202A
:101840006D200020210F0020B8150020561B00201D
:10185000040800203C0C0020341B0020C8E10108D3
:10186000E83C00209E130020D90B00209C13002090
:10187000441C0020CE200020A4080020381B00209B
:10188000E42000202A780CA804920C960BF0DCFDD2
:1018900003460CA803930BF0D7FD83460CA80BF06E
:1018A000D3FD82460CA80BF0E5FD0CA80BF0E2FD81
:1018B0000C99049A01310C91039B9AB9B94A1020F2
:1018C00082E8080808F0C2FEB74B1A7842F001021D
:1018D0001A70BAF1000F3EF425AEB44BC3F800A065
:1018E000FEF720BE102A7EF41DAEB14A82E8080839
:1018F000BAF1000F02D0AD4BC3F800A0AC48AD4B1D
:101900000222011D1A7008F0B1FEFEF70BBEDFF8CF
:10191000C4A200230CA8CAF800300BF095FDDAF839
:1019200000301843CAF80000FEF7FCBD0CA80BF00D
:10193000A1FDDFF8A4A2AAF800000CA80BF09AFD04
:10194000AAF802000CA80BF095FDAAF80400FEF717
:10195000E9BD2B780C96002B40F0B881964B3A7875
:1019600006981A7099F8002050215A7004F1140258
:101970000C92924A01FB0022D27C9A70FEF7D2BDF3
:1019800095F800A00C96BAF1010F00F39F81DFF8E3
:101990004CB20CA80BEB8A0303930BF06BFD2BF8F6
:1019A0002A000CA80BF066FD039B5880FEF7BABD19
:1019B000DFF82CA22B7805998AF801303B780CA827
:1019C0008AF8003099F800300C918AF802300BF058
:1019D00051FD0C9BAAF804005A1C0C921B788AF843
:1019E0000630FEF79FBD2A78754B0C961A70FEF7ED
:1019F00099BDDFF8D4A12B780CA88AF808300C9692
:101A00000BF038FDAAF814000CA80BF033FDAAF86F
:101A100010000CA80BF02EFD0C9AAAF81200531C13
:101A20000C9312788AF80A200D9AD31A012B7EF7AC
:101A300079AD0CA80BF01EFDAAF816000CA80BF04F
:101A400019FDAAF81800FEF76DBDDFF898A12B78F4
:101A50000CA88AF800303B78CDF830808AF8013045
:101A60000BF008FD0C9BAAF802005A1C0C921B7884
:101A70000CA88AF804300BF0FDFC0C9BAAF80500BA
:101A80005A1C0C921B788AF80730FEF74BBD2B7856
:101A90000C96112B00F31A814A4A39780CA802F8E7
:101AA000131002EB430ACDF830800BF0E3FC40F258
:101AB000ED23984205DD40F6CA039842A8BF1846B8
:101AC00001E040F2EE20A0F2EE20192390FBF3F0AB
:101AD0008AF80100FEF726BD2A783B4B0C96DA7295
:101AE000FEF720BD00230C9A511C0C911178364A48
:101AF00099540133082BF6D1FEF714BD334B1B78F4
:101B00005B073EF50FAD95F900B00C96584606F010
:101B10000DF8DFF8D4A008B1436873B9032300229D
:101B20000093019258464FF400614FF4E13310F0F6
:101B3000BEFECAF8A80210B9C8E0CAF8A832244A02
:101B4000C0E007239AFBF3F3C3EBC3039A4540F0CD
:101B5000BD800C9B0D9AD21A062A7EF7E3AC5A1C64
:101B60000C92DFF888A01B780AF128029AF800107E
:101B70008B4204D00AF1080A9245F7D1A6E08AF810
:101B800000300CA80BF076FC0023AAF802000C9A97
:101B9000511C0C9111780AEB03020133042B1171D3
:101BA000F5D1D6E7D0200020D90B0020E41B00207F
:101BB000DC200020D8200020781C00203C0C0020D5
:101BC00074080020D815002030060020E83C0020D2
:101BD000650B0108C8050020F40B00207E1C0020C6
:101BE000980800206D200020B81500205A3B0020E6
:101BF0002AF801000AF1040ABAF1400F8BF802E05A
:101C00008BF803303EF48EAC0D9A0C9BD31A032B49
:101C10007EF788AC60490CA80AEB010B04910BF02D
:101C200029FC0C9BB0F5B47F03F101020C921A461B
:101C300012F802EB04990C925B78D9DB584600212C
:101C4000042216F0C9FD41E0BAF1050F0C9695F893
:101C500000B03BD1BBF11F0F38DC0CA80BF0F4FB3C
:101C60004E4B03EB8B03C3F80C0109F0CDFCFEF7E0
:101C700059BC5A1C0C921A4612F8020B03F1030EBF
:101C80000C925A78CDF830E09B780F2B1ED805289F
:101C90000ED8052A1AD8DFF814E14FF0060C0CFB19
:101CA00000E083540C9BCA1A022AE2DCFEF73ABC1D
:101CB00006280BD10A2A09D83848024482F8B031E4
:101CC000F0E7374A374B1A60FEF72CBC4FF0FF3372
:101CD000ADF82E30099B20460A9309A918AB099349
:101CE0000FF0F2FD00232373DFF8B8A0DAF800301C
:101CF00023B1204698470023CAF80030237BE3B97C
:101D0000A268D2B1079BC3B94FF6FF71ADF844107A
:101D1000079918AB58A80F9310900393ADF846108D
:101D20000FA89047039B30B10F9A20460FA910923D
:101D30000F930FF0C9FD0023A360069A059B0132A3
:101D40005033022A069204F1500406F1500605F1C0
:101D5000500508F1500807F15007059309F15009A3
:101D60007EF4E7A959B0BDE8F08F099B581C099093
:101D7000197009A891880BF09CFB00230A4A524471
:101D80001A449179099A0133501C042B099011705F
:101D9000F4D1FFF7E0B800BF84160020B81500208A
:101DA00011C10008C83C0020583B00204417002007
:101DB0002DE9F04F754C00232370754B75491A6857
:101DC00063686260D31A744A9BB012789BB2042A8B
:101DD00008BF23810B800AF012FF704B22691F6835
:101DE000A38AE5690B93238C0D9098070E920F95AB
:101DF0007CD56B496B480E8AB0F9001040F2E63E84
:101E0000891B01F2F31CF44597F8272097F8285016
:101E1000FB7E03D80029B8BF494201E04FF4FA71B4
:101E2000B0F90200801B00F2F31E40F2E636B64520
:101E300003D80028B8BF404201E04FF4FA7088424E
:101E4000B8BF08460526C0F5FA7090FBF6F0B4F965
:101E50002410B4F922600029B8BF4942002EB8BF4F
:101E600076428E42A8BF3146012D1DD1AE2A35DC07
:101E7000C2F1AF02122555430A246A1A624395FB48
:101E8000F4F492FBF4F2642AA8BF642222EAE2721C
:101E90002BB164216438484390FBF3F30B44534364
:101EA000642193FBF1F016E06AB1C1F5E1611224FF
:101EB00091FBF4F45443642194FBF1F48A1A224414
:101EC000534393FBF1F3002B08DD64226438504345
:101ED00090FBF3F0104420EAE07000E0002013F0E3
:101EE00081FE314913F086FF0C9001E000260C962C
:101EF0002E4A0025099708922C462E460E9B022E4C
:101F000033441879DFF8848000F11B0007D1B8F959
:101F10005030584313F066FE4FF0745132E008F130
:101F20004C0334F9039009FB00F013F05BFE4FF013
:101F3000765113F0ABFEB8F820A083461AF0030FD9
:101F40004DD01B4B0B9AE35E03EB49095342994575
:101F500003DB13469945B8BF4B46164AA25E9B1A4F
:101F60000F9A105F184413F03DFE1AF0010F8046DF
:101F700022D0F87913F036FE0146404613F086FE73
:101F80004FF0765113F082FE28E000BF8C1900203C
:101F9000C03C0020E63C0020CC050020F00C0020D6
:101FA00030060020280E00200000C842B41900208E
:101FB000E23C0020AE190020787C13F013FE0146AD
:101FC000404613F063FE0C9913F060FE4FF076511B
:101FD00013F05CFE0146584613F050FD8346DFF8CF
:101FE0006892914909F15403E85813F04FFE8F4B62
:101FF000D96813F04BFE82465146584613F03CFD1B
:102000004FF070510A9013F041FE8046B85D13F016
:10201000E9FD0146404613F039FE09F160038046B0
:10202000985D13F0DFFD0146404613F02FFE804916
:1020300013F0E0FE022E80465DD1BB8C002B3CD01D
:10204000079306F033FB00218346D9F8680013F0AC
:10205000B1FF079B70B1D8B213F0C4FD754913F0FE
:1020600015FE01464FF07E5013F0C4FEC9F86CB067
:10207000C9F86800DFF8D0B1DBF86C30DBF8681025
:102080001846DBF86490079313F0F8FC079B0146B1
:10209000184613F0AFFE494603464046079313F037
:1020A000EBFC079B0146184613F0F0FD014648463D
:1020B00013F0E4FC8046CBF86400B7F820B0BBF125
:1020C000000F18D05C4B1B78032B14D9CBF1000008
:1020D00013F088FD81464946404613F075FF48B924
:1020E000584613F07BFD81464946404613F08AFF6F
:1020F00000B9C146C846514B55F8039006F0D6FAD0
:102100004F4983460A9813F0C1FD594613F0BEFDAE
:10211000099B8346987A13F065FD0146584613F0F3
:10212000B5FD0146484613F0A9FC4649814613F027
:102130004BFF40B948464FF0874113F063FF20B191
:102140004FF0874901E0DFF8FC903F4BDA6F110157
:1021500027D53E4A1278920602D493F88030ABB16C
:102160003B4B4846EB5803F1004B5946079313F09D
:102170002BFF079B40B91946484613F043FF079BC6
:1021800008B19B4600E0CB46D9460AE0484600210C
:1021900013F038FF10B909F1004300E04B462C4A18
:1021A000AB500998254B027D45F80390002A00F0BA
:1021B000BA8097F8262003F1200B4AB95BF8051086
:1021C000504613F059FC4BF805A000F1004308E01D
:1021D0005BF805100A9813F04FFC0A9A03464BF877
:1021E0000520079306F062FA079B0146184613F094
:1021F00001FE7B8D83463BB1164B1C20594600FBEC
:1022000006300AF0CEFC83467B8C002B60D097F81A
:102210002920012A22D1104B1C20594600FB0630F0
:102220000AF0BFFC834653E033338340DC0C0020CC
:102230000000C842DB0FC940A40A0020FC1900209E
:102240000024743D000080C38C190020D90B0020AD
:10225000101A0020281A00207C1A0020079306F08C
:1022600025FA089A82460021506813F0A3FE079BC6
:1022700070B1D8B213F0B6FC974913F007FD0146D0
:102280004FF07E5013F0B6FD089B5860C3F808A0CD
:10229000089A936851681846D2F800A0079313F083
:1022A000EDFB079B0146184613F0A4FD514603467B
:1022B0005846079313F0E0FB079B0146184613F0BE
:1022C000E5FC0146504613F0D9FB089B8346186095
:1022D0008249584613F0DAFC099A8246107D13F0C1
:1022E00081FC0146504613F0D1FC7D4B8246985D3F
:1022F00013F078FC0146504613F0C8FC794913F0FE
:1023000079FD4FF04441824613F05EFE40B95046DD
:102310004FF0884113F076FE38B14FF0884A04E060
:102320004FF0444A01E04FF0000ADFF8D0B14046D8
:102330000BF5A273079313F06FFE079B58510BF533
:10234000A8734846079313F067FE079B58510BF597
:10235000AE735046079313F05FFE079B49465851F2
:10236000404613F08BFB514613F088FB16F056FCE9
:10237000BBF820200BF5B47312F4006F185300F073
:10238000EE8059490978480740F1E9800BF14C0388
:10239000E35E23B9F3B2022B09D0910707D0534B68
:1023A0000022E252BBF87A210633E252D7E0504ACB
:1023B000A15A11B902F108002950013189B20FFA6E
:1023C00081FCBCF1000F115314DD4A4A022B02F1CB
:1023D0000C0030F905E006D120209EFBF0FE50599C
:1023E00000EB4E1005E080209EFBF0FE505900EB04
:1023F000CE105051DFF80481D8F8942192F80AE009
:10240000F44540F0AC8008F5BE7E55F80E00022B76
:1024100090FBFCF145F80E1008F5BA704FF0000E75
:1024200024F800E006D1C1F100081FFA88F84FF047
:10243000140903E01FFA81F84FF00A09901990F887
:1024400003C0BCF1000F00F08780B8F1000F00F06E
:1024500083802648205A00287ED00FFA88FE00B2DA
:10246000864579D08EEAEE7BABEBEE7B80EAE07AB4
:10247000AAEBE07ACAEB0B0ABEF1000F0FFA8AFA58
:102480000FFA89F902DD002802DC39E0002837DA8A
:10249000CA45194810DD022B92F8069007D130F892
:1024A00004A009F58079D14420F8049038E009F1BE
:1024B000400930F804E00DE0C9F10009CA452FDAFF
:1024C000022B27D192F806E030F80490CEF57F4E2B
:1024D0000EF1C00ECE4421E0DB0FC940373706397C
:1024E000EC1900200000C842E83C0020FA1A002045
:1024F000001B0020081B0020241B00208C1900203A
:10250000BAF1000FB8BFCAF1000ACA4508DD022BB4
:1025100006D0A04834F800E0AEF1200E24F800E028
:102520009C4812F80690205E8011484503DB604508
:10253000B4BF8146E146984A1268120308D5149147
:10254000142013A98DF84C30ADF854900DF076FCA2
:10255000924B1B6803F80690914B24F80380099A6C
:10256000089B013601320C33032E04F1020405F1FD
:102570000405099208937FF4C1AC8A4B8A4C1A78FF
:102580001D46042A04D10AF03AFB0D9E801BA0814F
:102590000AF035FB2B780890012B09D1834AD4F837
:1025A000A0311268C31AA3819B1AE381C4F8A00169
:1025B0007F4BDB7809937F4B1D787F4B032D14D91C
:1025C0009988B1F5FA7F10D2B4F95060B4F96C0172
:1025D000002EB8BF76424A42921B904203DB8A1912
:1025E0008242A8BF0246A4F86C21E66FB4F86A8163
:1025F00016F00066B4F86891B4F96C210AD193F929
:1026000002A06949CAF1000AB1F852B002FB0AFA05
:102610006A4C50E193F902A00026CAF1000A02FBBD
:102620000AFA664FB3463346AB4238D20FFA88F007
:10263000079313F0D7FAB96813F028FB02460FFA94
:1026400089F0069213F0CEFA796813F01FFB069A10
:102650000146104613F012FA02465046069213F055
:10266000C1FAF96813F012FB069A0146104613F0FE
:1026700005FA13F0D1FC079B80B213AA22F81300CD
:102680000FFA8BF102B28A4203DC31B28A4202DBDA
:10269000584683463046013310370646C4E73E4B62
:1026A000C6EB0B081A681FFA88F812F4805F9A4686
:1026B000434E31D0434B1B7813F0040F424B08BFFD
:1026C0001A8A1F8A08BFA4F8A421404A364BD5882D
:1026D000D4F8A82129B2D0883A1A914203DCB3F881
:1026E000AC91378806E03844814206DBB6F80290A8
:1026F000B3F8AE71A3F8A45113E0B3F9A411914259
:1027000004DCB3F8AC9137884D460AE0B3F8AE71FB
:10271000B6F802903D4604E0B4F852503788B6F857
:1027200002901FFA89F9BFB2C7EB090B0FFA88F8BC
:102730000FFA8BFBD8454BDD012384F880305846D7
:1027400013F050FA8146404613F04CFA01464846D1
:1027500013F050FB4FF0000980460DF14A03154A73
:10276000127891450FD2B3F90200079313F03AFAA9
:10277000414613F08BFA16F051FA079B09F1010953
:1027800023F8020FEBE702239BFBF3FB5F44BFB28E
:10279000B94629E0241B0020C4050020F00C0020CD
:1027A000FA1A0020CC0500208C190020C43C00201F
:1027B000100D0020A40A002074080020A80A0020A0
:1027C000A4080020E83C002030060020280E00204D
:1027D000002384F88030022398FBF3F84744C8EBC9
:1027E0000909BFB21FFA89F9B4F9A421DAF8003057
:1027F0000A92AE4A03F48053128A0E930B92B4F8F5
:10280000AC21D4F8A8310D92A94AB6F804B01278D8
:10281000B6F802803688B4F8AEA10C9352000024BA
:10282000944200F0278113A934F801C028B206921F
:10283000CDF81CC013F0D6F99E4951F8341013F0AE
:1028400025FA13F0E9FB39B28842069ADDF81CC07C
:1028500004DB0FFA89F18842B8BF01468C44099B1A
:1028600095491FFA8CFC24F801C00FFA8CFC1BB1AF
:10287000DC4517DADC461AE00E9B8BB10C9BD8883E
:102880000B9B181A0A9B834206DCB4450EDB0D9B9A
:102890009C45A8BF9C460AE0D44503DAD44606E02E
:1028A000B44503DBC445A8BFC44600E0B44621F8E4
:1028B00004C00234B4E7AE4204F110047E4F39D2B2
:1028C0000FFA8BF013F08EF954F8101C13F0DEF9A8
:1028D00003460FFA88F0079313F084F954F8081CA4
:1028E00013F0D4F9079B0146184613F0C7F80346C6
:1028F0000FFA89F0079313F075F954F80C1C13F0D4
:10290000C5F9079B0146184613F0B8F80346504630
:10291000079313F067F954F8041C13F0B7F9079BF9
:102920000146184613F0AAF813F076FB27F81600B4
:102930000136C0E7B7F800C00123AB420FFA8CF1B3
:1029400008D237F913C001338C45B8BF8C461FFA43
:102950008CFCF2E7594B594F5A88594B9142D3F8A6
:1029600000E0584BDFF844A193F80180564B0EF479
:102970008054B3F90610554B1094B3F8AE01D3F858
:10298000A861B3F8AC910A96049086B21FFA89F058
:102990000C90B8880B963F880EF01006BAF81040DD
:1029A0001196BAF812A086B2C8BFC2EB0C0C0E96F4
:1029B00003F5D973BEB2CCBF1FFA8CFC4FF0000CEC
:1029C000CDF834A00F9603EB4505AB4252D0B3F8D7
:1029D00000E0109ECCEB0E0E1FFA8EFE23F802EBE9
:1029E0001EB3B8F1000F09D10A9EB6F806A0CAEBD3
:1029F000040B594502DDA24451450FDBA1420FFAF9
:102A00008EFE05DD049EB64515DADDF810E017E010
:102A1000864514DBCE45A8BFCE4611E0DDF830E098
:102A20000B9EA142C8BFB6460AE0099E0FFA8EFE71
:102A30004EB1864503DB9645A8BF964600E0864624
:102A400023F802ECC1E7BE4503DB9645A8BF9646D6
:102A500000E0BE460D9E23F802ECB142B5DA119EAD
:102A60000EB10E9E03E0B8F1000FAED10F9E23F819
:102A7000026CAAE7164B1A7802F0040202F0FF0378
:102A80003AB1104B1B78013BDBB2182B00F24981A5
:102A900020E0074A11788B42F3D2074A02F118006E
:102AA00030F8130022F813000133F4E73006002059
:102AB000A40A0020A80A00203E1B0020A408002031
:102AC000C405002074080020280E00208C19002066
:102AD000E83C002001229A40C14B1340002B00F03B
:102AE0002081C04BC0491A8C12F4807FBF4A0AD0A3
:102AF000B3F84C00ADF84C00B3F84E00ADF84E0002
:102B0000B3F8500015E0B3F86801B94CADF84C00CB
:102B1000B3F86A012468ADF84E00B3F86C01E40420
:102B2000ADF8500007D5B2F906500C8AA54202DA7A
:102B30004042ADF85000B3F924504FF47A7405F5D3
:102B4000E16565434FF4616095FBF0F5A5F5FA7515
:102B5000ADF86450B3F92250098A05F5E1656C437C
:102B600094FBF0F0A0F5FA70ADF86600B3F8B2018E
:102B7000A0F2DC50ADF852001088401AADF85400B5
:102B80005088401AADF856009088401AADF85800A9
:102B9000D088401AADF85A001089401AADF85C0090
:102BA0005089401AADF85E009089D289401A511AB6
:102BB000ADF86000ADF8621000228E48002111527D
:102BC0000232102AF9D1D86FD3F8E43109900A9370
:102BD000894B1B785B000B930B460B9DAB4200F0BF
:102BE000858086480A1894793CB115340125E4B2F1
:102BF00005FA04F4099D2C4073D0455C0A9E0C270D
:102C000007FB0567B7F90000B7F9026092F904B055
:102C1000361AB6B206FB0BFB64209BFBF0FB92F866
:102C200001904FEA560892F803C0C8EB0B0B1FFA4D
:102C30008BFB92F805A072484FEA490E1AACBCF122
:102C4000000F03D1744434F81C4C0CE0A6443EF948
:102C50001CECC45E744508DAA444A44503DBE645D5
:102C6000B4BF74466446C4520AE009DDCCEB040CE0
:102C7000F44503DBA445B4BFE646A64620F803E0CE
:102C80004FF0010E0EFA09F9BF6892F9022019EA15
:102C9000070F0CBF77464FF0FF37DFF864E1554868
:102CA00033F90EE00FFA8BFB02FB0EF24FF0640ECD
:102CB00092FBFEF25A4530F81540BFB20CDB4FFADA
:102CC0008AFA06FB0AFA9AFBFEFBC8EB0B0B0FFA1B
:102CD0008BFB9345A8BF93460BFB074B20F815B021
:102CE00001E0474A9C520233073176E73D4B00240E
:102CF000D3F8E48125460C2303FB05833D4E93F96D
:102D00000630A75FE8B25F43642397FBF3F7A7534E
:102D100005F01CFC01353844082DA05304F10204D1
:102D2000E9D1334B2F4C1A68984612F0200F314DE1
:102D30002DD0002005F00AFC28800646012005F071
:102D400005FCE36F68801F0621D5D4F80832B4F97A
:102D500022201B78B4F92470012B1CD1D4F8E43163
:102D600093F9121093F906304A435B425F433221D4
:102D700092FBF1F26FF0310392B297FBF3F313443D
:102D800097FBF1F71E443A442E8010446880D4F833
:102D9000E491002314E0D4F8E41191F9063091F99C
:102DA00012105F434A43322397FBF3F73E4492FBF2
:102DB000F3F32E801844E9E7EA520233102B21D0B6
:102DC000062000FB0390E95EB0F90020B0F9020094
:102DD0009142F1DB02B29142B8BF0A46ECE700BF74
:102DE000992098018C19002030060020280E002020
:102DF000C405002088080020680B0020690B002013
:102E0000741B0020A14F97F90C3093B93B78013B1C
:102E1000182B6BD8DFE803F0316A6A4A6A6A6A43A2
:102E20006A6A6A6A6A546A6A6A6A6A4A5F6A6A5459
:102E300031000026964BA85F4FF00E0A0AFB063AB7
:102E400012F0D0FE0146504609F0ABFE15F0E6FE4A
:102E5000062202FB069280B2A853B2F9003000B2FB
:102E60009842B2F9022003DB13B29842B8BF03467E
:102E7000AB530236102EDDD1C8E7BB7913B1002069
:102E8000698908E0834B1B7803F0040303F0FF001B
:102E9000002BF4D1014611F053FB012627E000205E
:102EA000E98811F04DFB0120298905E000202989DE
:102EB00011F046FB6989012011F042FB022616E061
:102EC000002605EB4603F0B29988013611F038FB75
:102ED000062EF6D10BE0002605EB4603F0B2D988AA
:102EE000013611F02DFB042EF6D100E00026D8F8B3
:102EF0000030990602D43B78052B0AD13046298848
:102F000011F01EFB701CC0B2698811F019FB02366B
:102F1000F6B2D8F80030DA0205D45F4B1B787BB1EB
:102F200009F048F80CE000255C4B701903EB4503F1
:102F3000C0B2198911F004FB0D2DEED00135F3E775
:102F4000574B1B78042B04D109F059FE089A801ABC
:102F5000E08109F054FE534B08909B680BB1524836
:102F60009847E36F514DDB026BD52E8C06F400665B
:102F7000B6B2002E52D1474B1B785F074ED54FF4A7
:102F8000006007F035FB4A4B00221868837F022B54
:102F900006BF012385F80E3285F80E62D4F89451ED
:102FA0004FF47A762B895E43424B1B8896FBF3F6EF
:102FB0007642414BB6B293F800C0A4F87A6113464A
:102FC000E918CF781FB115F80380B84505D8BCF1D2
:102FD000030F04D8DFB2022F01D10027CF70E95CC4
:102FE000C75C8F4238BFC15410F803802F494FEAA5
:102FF000881801F5CC7722F80780013301F5B777FF
:103000004FF0000822F80780032B01F5BA77D6535A
:1030100002F10202D4D1012381F80F32238C234D17
:10302000180519D41B4B1B7803F0040303F0FF06AB
:1030300093B995F80F327BB110F06EFC85F80F62F2
:103040000AE02B8C190507D5124B1B785A0703D5BC
:103050004FF4006007F0FAFA104B2169B3F906202B
:103060004B899A422ADBB2F5FA6F91F807C009DA68
:10307000D21A02FB0CFCA3F5FA639CFBF3FC0CF1E7
:10308000640C1DE0CCF1640C1AE000BF7408002051
:10309000480D0020E83C0020DA0B0020280E00201C
:1030A000CC050020DC0C0020981B00208C1900208F
:1030B000F00C0020E63C0020A40A00204FF0640C35
:1030C0009F4B00221E8AD4F8A87110469D4B6421A4
:1030D00032F90380C6EB0803002BD8BFC8EB060308
:1030E000B3F5FA7FA8BF4FF4FA73022826D03D78D3
:1030F00025B1AB42CCBFC5EB03030023924D93FB3C
:10310000F1F905EB490A6FF0630B0BFB0933BAF8D1
:1031100010A205EB4909B9F912B20FFA8AF9C9EB05
:103120000B0909FB03F393FBF1F18A4405F14C030E
:10313000603522F803A000F805C025E07D7825B1B0
:10314000AB42CCBFC5EB0303002393FBF1F504EBCB
:1031500045096FF0630A0AFB0533B9F81E9204EBC8
:103160004505B5F920A20FFA89F5C5EB0A056B43B1
:1031700097F9045093FBF1F399446D4209FB05F96B
:1031800084F86210A4F85090B04503DA6F4BD15A1E
:103190004942D1520232062A00F1010096D1694B10
:1031A000B3F90660664B5F8ABE4206DBB6F5FA6F7E
:1031B000B4BF30464FF4FA6000E038464FF47A73FB
:1031C000C01B5843C7F5FA63B0FBF3F0642190FBD2
:1031D000F1F304EB43026FF0630A0AFB0300B2F859
:1031E0002C2204EB4303B3F92EA213B2C3EB0A0A59
:1031F0000AFB00FAB4F820B09AFBF1FA92441FFAE5
:103200008AFA1BF0400F504DA4F852A043D0B5F9F4
:1032100026000A2390FBF3F0B5F84432C01A00B23E
:1032200012F0E0FC4A4912F031FD044611F088FE2C
:103230008046204611F010FE0446B5F94E0012F00B
:10324000D1FC8146B5F94C0012F0CCFC4146079008
:1032500012F01CFD214602464846069212F016FD69
:10326000069A0146104612F007FC12F0D5FE4146C0
:10327000A5F84C00484612F009FD079B8046214600
:10328000184612F003FD0146404612F0F7FB12F01B
:10329000C3FEA5F84E002F4D2B4C296811F0140FDA
:1032A00079D01BF4027F76D02B4B1B7803F01003F0
:1032B00003F0FF0053B1B4F84E2094F94602D4F85D
:1032C000483200FB0323A4F84E3064E0D4F8A83160
:1032D000DA789B7802B3B4F94C22C2EB060CBCF14D
:1032E000000FB8BFCCF1000C9C450BDD9642C8BF67
:1032F0005B42C4F85002C8BF9BB2012084F854025C
:10330000534446E094F85432ABB3D4F85C3284F8BA
:103310005402C4F858322EE0B4F94C02301A80EA54
:10332000E07CACEBE07C9C451ADD022390FBF3F0E3
:103330000A4B1860012384F8623284F854321AE090
:1033400030060020280E00208C190020D8190020FB
:1033500035FA8E3C300C0020D90B0020CC3C0020EC
:1033600094F854323BB1D4F85C3284F86222C4F849
:10337000583284F85422D4F84832AE48B4F9602266
:103380001A44038840889A4203DB8242B4BF134642
:103390000346A4F852300B0740D5B4F85010A648A5
:1033A00001F10E039BB21C2B31D81BF0040F2ED061
:1033B000B0F926200A2392FBF3F2B0F86432D21A55
:1033C00092B293B218B2B330BCBF02F5B4739BB2E1
:1033D0009A481AB2B32A0078C8BFA3F5B473D4F8D8
:1033E000A821C8BF9BB20007127917D552B252422A
:1033F0005343934A1BB21268127A53436FF01D0273
:1034000093FBF2F319448C4BA3F8501006E0B4F987
:1034100026200A2392FBF3F3A4F86432894B1B782D
:1034200083B1BE420EDC884A1378012B01D0192BE0
:1034300001D1927932B90E2B04D0082B1CBF002386
:10344000A4F85030D4F868327B4E9F787FB31BF0DD
:10345000030F2CD0D6F88C827C494046B6F85290A7
:1034600012F0BCFDF8B9404611F02AFED6F89012D1
:1034700012F00CFC15F0D2FBB0F5617FA8BF4FF441
:10348000617012F0AFFB724912F0B4FC11F0E4FC71
:103490000646384612F0A6FB314612F0F7FB15F04F
:1034A000BDFB80B200E000204844A4F85200694B04
:1034B0009B7B002B61D094F894225F4B002A3CD078
:1034C000654BD3F81431B3F57A7F05DB44F6206100
:1034D0008B42B8BF194601E04FF47A715F4B01F59A
:1034E0007A711B6889B2B1FBF3F101F1010C1FFA8B
:1034F0008CFCB4F99892A4F896C200234E4A02F2CA
:103500009A2733F9078002F14C0009FB08F81E5A8C
:1035100002F2A22033F800A098FBFCF8CAEB060ADE
:10352000D04423F807801E520233082BE6D1002333
:1035300082F89432A2F8981204E0B3F89822013A83
:10354000A3F89822B4F998123B4A00294FF00003DF
:1035500011DDB2F99672424A02F24E20185E02F272
:10356000562648439E5B90FBF7F0301A9852023380
:10357000082BF0D101E0A2F898322B689F0640F1A9
:10358000A380238C2C4D03F03003002B00F09C8093
:103590002A4B1B78DE0740F19780B5F926000A23F5
:1035A00090FBF3F012F01EFB2E4912F06FFB064663
:1035B00011F052FC8046304611F0C2FCD5F8AC3216
:1035C000074693F80390284EB5F9B602B9F1000FFB
:1035D0004CD0B5F8B232C9F100051FFA83FA1BB21C
:1035E000C01A05F0C7FAA84203DB4845A8BF484601
:1035F00000E02846B4F8B0328244B4F9B4021FFAAD
:1036000083FB1BB21FFA8AFAC01AA4F8B2A205F013
:10361000B1FAA84203DB4845B4BF05464D465D44B8
:10362000ADB2A4F8B0520FFA8AF012F0DBFA81467C
:1036300028B220E0A40800208C190020D90B00201B
:10364000F00C00204C030020740800208FC2753C51
:10365000EFB6B0443006002018000020C43C002023
:10366000D819002035FA8E3CE23C002012F0BAFA5C
:103670008146B5F9B40212F0B5FA39460546484616
:1036800012F004FB41468246284612F0FFFA01463A
:10369000504612F0F1F9A14912F0ACFB12F0BCFC5B
:1036A00041463080484612F0F1FA394680462846B5
:1036B00012F0ECFA0146404612F0E0F9974912F098
:1036C00099FB12F0A9FC7080954B1878002840F007
:1036D000CE81944F3B681D0340F1C981924D2B78F8
:1036E000033B052B1CD894F8BA3233B1012B09D116
:1036F00005F07EFAC0F17F0004E08C4BD3F8BC02E9
:1037000009F0A4FB8A4A94F8C01213680B44B3F57D
:10371000807FA8BF4FF480738342D4BF13601060D2
:103720002B78023B092B00F29D81DFE813F00A00A1
:103730001400460065007A009200A4005501710152
:103740007C017B4B00221A607A4B1A607A4A12681D
:103750005A60032385E1784B764F1A687B6864339F
:103760009A4240F27F8140200CF0A0F9002840F0FE
:1037700079814026714B3A68DFF8B881985C9946A8
:1037800070B10CF0D1F96A4A013E116801F1FF31C4
:103790001160D8F8002002F10102C8F80020E9D138
:1037A0003A68644B19F80220002A40F05B811A60E5
:1037B0004FF0FF325A60042353E126230093604BFD
:1037C000492003F10C02019302925021A3F10A0255
:1037D00002330CF0CFF9002840F044813B684FF0F1
:1037E000FF3213F08001534B15BF83E8050083E8D7
:1037F00006000523072334E1524A022300210093E7
:1038000001910291482002F108030CF0B3F900285D
:1038100040F02881474B4FF0FF3218605A60062372
:103820001FE1494B072603F10C0201930292009617
:10383000A3F108024720002104330CF09BF9002873
:1038400040F010813B4B4FF0FF3218605A602E70F1
:1038500008E13E4A05230021009301910291532083
:1038600002F108030CF086F9002840F0FB80314B90
:1038700018600823F5E040200CF018F9002840F00B
:10388000F1802C4E33680D2B00F20581DFE803F048
:10389000070B0E12181F292D313539868E922C48B0
:1038A0000CF0FEFB94E02B482B4917E02B482C49E9
:1038B0002C4A8BE02C4894F8B81294F8B92285E091
:1038C0002A4B2B4893E8060008331B686BE094F8FA
:1038D000E6320C225343274A2748D15C0CF0E0FB28
:1038E00076E0264B26481988F8E7244B2548598866
:1038F000F4E7254B2548D968F0E7254B2548198979
:10390000ECE7D4F8E832D80404D5084B224893F801
:10391000EC12E3E70C2333605AE000BF00002041C3
:10392000EA3C0020C40500209C1300208C190020D4
:10393000B0150020A8150020B83C0020ECA6010816
:1039400056A7010814A901082CA9010878A90108A3
:10395000EAC3010804C401082EC3010819C4010800
:1039600019C3010825C301082DC40108E8F7FF1F8A
:103970003EC401084E1C002052C40108A4080020C7
:103980005CC401086BC40108DC0C00207AC4010887
:10399000040D00208AC4010894C40108444B454822
:1039A00059789A781B780CF07BFB11E04248B4F808
:1039B000F01293E73B6819050AD53D4A3F4B9279CF
:1039C0003F4803EB8201498833F922200CF068FB61
:1039D00033680133336045E0E26F3A4B920114D50E
:1039E000B3F8FA228AB9D3F8FC320E201393364B7F
:1039F00013A91B6814930CF021FA344B4FF4805236
:103A00001A800A232B7006F099F904F011FF29E0BF
:103A100094F80033002BF6D02A4BDB6F9B01F2D4D5
:103A200009232B70F1E72A4B1A682A4B5B68C833CD
:103A30009A4204D994F8BA72224E8FB904E00CF07D
:103A400063F80028F6D10DE0D6F8BC0204F052F875
:103A500096F80133C6F8BC72022B01D111F0FEF8C2
:103A600001232B700EF00AF808B101232B701A4BBA
:103A70001A781D46042A04D109F0C1F8089E801B5B
:103A800060812B78052B10D1144B1B88A381E3890F
:103A90000133E38109E00CF037F80028E2D00B4B4A
:103AA0004FF480521A800A23DBE71BB0BDE8F08F89
:103AB00098080020A1C40108BAC401087E1C002097
:103AC000C5C401088C190020C03C0020A6150020A8
:103AD000B83C0020A8150020CC050020E63C0020C2
:103AE0002DE9F04F8BB00EF029FFBF4B1D78002D54
:103AF00041F05E82BD4F3B685A0541F15982BC4B93
:103B0000BC4C1B68DFF83883B3F806902378002B91
:103B100000F0F081D8F8003062689A1A7C2A40F2EE
:103B2000E9816360237A0133237205F12400C0B276
:103B300009F0D4FAB04B4FF47A7053F825300135C0
:103B40005843AE4B1B8990FBF3F000B209F0F2FA38
:103B5000032DEAD1302009F0C1FAA94BA54EB3F9E3
:103B6000000009F0E7FA09F0C7FA237A9B0730D181
:103B7000736841F28832934218D9102009F0AEFAE6
:103B8000F068642590FBF5F000B209F0D3FA21202B
:103B900009F0A4FAF36893FBF5F005FB103585EA0C
:103BA000E570A0EBE57000B209F0C4FA142009F04A
:103BB00095FA944BB3F904000A2390FBF3F009F053
:103BC000B9FA1C2009F08AFA002009F0B3FA09F0CA
:103BD00093FA237A5D0740F06981022009F07EFAAA
:103BE000844B052618696423323090FBF3F000B251
:103BF00009F0A0FA844B0320B3F9065009F06EFADD
:103C0000824B95FBF6F51B78ADB258070AD54846AE
:103C100008F05EF920B93B6813F0100F18BF0025BB
:103C200028B204E07A4B9B88B3FBF6F000B209F0AF
:103C300081FA3B68990772D5764B774D9B7833B301
:103C4000764E2B883278642101FB0323B4F814905C
:103C500052004FEA0919B3FBF2F31FFA89F949EA56
:103C600003291FFA89F9C3F3032349EA030906204C
:103C700009F034FA0FFA89F009F05CFAA28A337875
:103C8000013292B292FBF3F103FB1123A38294F869
:103C90002230012B05D1392009F020FAB5F90000B6
:103CA0001BE02B886E255D43152395FBF3F5ADB224
:103CB0003A204FF0640909F011FAB5FBF9F630B279
:103CC00009F038FA3B2009F009FA09FB165080B2D6
:103CD00005300A2390FBF3F000B24D4D09F02AFAAB
:103CE0004F4E95F80690282009F0F8F956F839005B
:103CF0000A2390FBF3F000B209F01CFA042009F04B
:103D0000EDF9AB8813B108F081FA05E0AB7906EB69
:103D1000C306706880F3100000B209F00BFA414B43
:103D20001B689A0640F1B7803F4E33789B071FD53A
:103D3000DFF81091112009F0D1F9B9F800004FF423
:103D4000F3656843394B90FBF3F000B209F0F2F9E8
:103D5000192009F0C3F9B9F800305D43642395FBDD
:103D6000F3F595FBF3F203FB125000B209F0E2F910
:103D70002F4B01201D88337813F0020F08BF002558
:103D800009F0ACF928B209F0D5F9092009F0A6F933
:103D9000002009F0CFF9274B1D78274B1B88B3F57E
:103DA000967F09D9227A02F00F02072A04D842F23C
:103DB0000F75AB42B8BF1D46052009F08FF994F886
:103DC00021300BB928B247E0A5F1200011F00AFF1D
:103DD0001A4912F00FF80021054612F0F5F898B3D1
:103DE0004FF03F4132E000BFEA3C0020C405002014
:103DF000341B0020301D002000160020040D002080
:103E00001C160020AE190020D8190020E83C002024
:103E100098080020340C0020301600209003002069
:103E200020160020300C0020D90B0020A0860100B5
:103E300038160020CE2000204E0300206666E63FA4
:103E4000B83C00203A1600204FF07C51284611F073
:103E500015FE12F0E1F800B209F06CF933789D0715
:103E600004D494F82430B44D012B04D1012384F8F8
:103E70002430B24816E0B249A86911F007FF12F0E9
:103E8000CBF8AF490290E86911F000FF12F0C4F8D6
:103E9000039002A806E0AB4A02AB92E8030083E875
:103EA0000300184609F051F909F026F9237A282B66
:103EB00020D1A14B0022D8F800501A724FF47A7327
:103EC000B5FBF3F917203C2509F008F9B9FBF5F625
:103ED000B6FBF5F005FB1060000200B209F02AF90C
:103EE000182009F0FBF805FB169000B209F022F942
:103EF00009F002F994F825308F4D002B00F05A811B
:103F000008F07DFEAB6A904AC31A9342064640F21F
:103F1000B1808E4B00229A701A718D4A4FF47A70DC
:103F20001288D1B2120A9977DA7719755A75D8F8CA
:103F30000010EA6A8A1A95F8301041438A420BD37E
:103F4000844A1268EA62844A1278013A012A03D844
:103F500010229A7002221A71804A9179804A02EBEB
:103F6000C10052F831100A2291FBF2F119770912BF
:103F70005977416891FBF2F283F8202079491212B7
:103F800083F82120784B09781A78784B88079A763D
:103F900002D42D22DA766CE0042A8CBF332232223E
:103FA000DA76664B72481D68DFF8E081596895FB48
:103FB000F0F308FB035A91FBF0F04FF0060908FB01
:103FC000001809FB0AFA6B4A09FB08F89AFBF2FB96
:103FD00003EB830302FB1BAA03EB83034FFA8BFB68
:103FE0000BEB830B614BED0F5D7298FBF2F502FB5F
:103FF00015824FF0640C92FBFCF25A7412129A7400
:104000005D4AC90F1288997324214A434FF47A718B
:1040100092FBF1F2DA71C2F307221A72574A00EBEF
:10402000800012886DB2DA74120A1A75544A00EBD5
:104030008000128805EB800002F5FA7292B25A7580
:10404000120A9A754F4A9AFBFCFA1FFA8BFB80B250
:10405000128883F80AB083F80CA04FEA1B2B4FEAB2
:104060002A2AD873000A83F80BB083F80DA01874BD
:104070001A77A66294F831902F4DB9F1000F0ED146
:10408000A86B08F0E8FE012809D90228DFF80081B2
:1040900000F0488708F0E4FE012388F80230E06B66
:1040A000254B002800F0868093F8312032B15A6CFD
:1040B00040F6B731B21A8A4215D87BE0012283F864
:1040C0003120314A986B12681278022A04D80430E1
:1040D00002210EF093FD02E0022108F0A3FE00236E
:1040E00084F8483065E093F840209AB9DA6383F8A1
:1040F0003120254A986B12681278022A04D80430BD
:1041000001210EF07BFD02E0012108F08BFE08F09A
:10411000A7FE4EE0013AD2B283F8402093F848104F
:1041200093F849E0B2BB4A1C0EF1010E83F8482017
:1041300083F849E0986B3AE0301D0020E42000202D
:104140008096184BACA901083F0D03001113002005
:1041500030160020B83C0020C8130020980800202A
:1041600020160020D90B0020CE2000203D13002077
:104170008096980040420F003A1600203E1600201C
:1041800038160020401600200C130020806967FFBD
:104190004E030020024612F8015B0EF1010E294485
:1041A000986B83F84810DA6383F849E0294608F0F1
:1041B00065FE6664AA4D94F84A30D5F80080A94A95
:1041C000002B00F0EA81D36C33B192F85030013B00
:1041D000012B8CBF00230123DA0740F1DE81E06C64
:1041E000A04E08F038FED0B1F06C08F02AFE96F828
:1041F000513081467E2BD5F800A00DD102231B281B
:1042000086F8503008D1F06C08F025FE20B9012363
:10421000C6F854A086F8583084F85190DFE72A6831
:10422000736DD31A41F6583293422AD9032386F884
:104230005030B2E193F859108B4A32F8110018B996
:1042400083F859004FF4036094F85930B0F5C06F0B
:1042500003F10103DBB2834E84F8593000F0AE80E5
:104260002AD8B0F5047F5BD01AD8B0F5887F00F06B
:10427000E080B0F5007F00F08F80B0F5807F00F027
:10428000968094F85820774B002A00F086812A689F
:10429000C8EB0202012ACDD9002283F858207CE124
:1042A000B0F5806F00F0FC80B0F5826F00F02D81DA
:1042B000B0F5407FE5D139E0B0F5006F00F08980BE
:1042C0000DD8B0F5E26F00F0C180B0F5E46F00F0FA
:1042D000C080B0F5E06FD4D1644B1B68BBE0B0F593
:1042E000036F0ED004D8B0F5026F00F03581C8E737
:1042F000B0F5046F00F0A580B0F5116F00F03B81C0
:10430000BFE75B4B1B689B06BBD55A4B1B789907D5
:10431000B7D5594B4FF4F3611B885943642334E1FB
:104320003B689A07ADD5554B1B888DE03B689B07D2
:10433000A7D5534B9B78002BA3D0504ADFF85C9154
:10434000128899F8003002EB820202EB820203EB42
:1043500082014FEA430E89B291FBFEF196F85A2092
:1043600003F00F03C1F30B0143EA011102F00F0246
:1043700042EA011108F07EFE96F85A20002386F8E2
:104380005830013299F80030D2B2B2FBF3F103FB9E
:10439000112386F85A3074E73B6819057FF571AF31
:1043A000384B9A79384B53F832100A23EDE0304BF2
:1043B0001B685A077FF565AFF168E8E03B681B05AD
:1043C0007FF55FAF2F4B9A792F4B03EBC2035968F0
:1043D000DDE0274A126896067FF553AF254A12782A
:1043E00090077FF54EAF13F0010F284B10D05A689D
:1043F000192182EAE273A3EBE27303EB5303B3FBED
:10440000F1F3002A43F0004110DA43F040410DE09F
:104410001B68192283EAE371A1EBE37101EB5101FF
:10442000B1FBF2F1002BB8BF41F080414FF40060C6
:1044300082E00F4B1B6859077FF523AF144B1968B7
:10444000A5E0144BB3F904300A2192E0074B5B68F6
:1044500001E0064B9B68642159430F4B1B8994E094
:10446000B83C0020301D0020E4C5010800160020E3
:10447000300C0020D90B00203A1600203016002006
:10448000340C00209808002020160020E420002092
:104490001C160020AE190020040D002090030020FF
:1044A000874B42F210721B7842F2117113F0010F28
:1044B00008BF11469A0748BF02315B07814B48BFCE
:1044C00004311B88DE0748BF0A31980748BF143102
:1044D00013F4106F18BF28315A0748BF64311E0704
:1044E00048BFC831980548BF01F5C8719A0648BF52
:1044F00001F57A71DE0648BF01F5FA61580648BF3A
:1045000001F57A614FF4806016E06F4B1B6813F081
:10451000200917D06D4B1B7813F0020F0CBF002140
:104520004FF47A7113F0010F0CBF00234FF4FA63BC
:104530001944674B1B78194408F09CFD002384F84C
:1045400058309EE63B6819067FF59BAE494608F059
:1045500091FD86F8589094E65B4B1B689A067FF5B0
:1045600090AE5A4B1B789B077FF58BAE594B64215D
:104570001B8859430BE03B6899077FF582AE564B89
:104580000A211B885943554B1B7891FBF3F108F026
:1045900071FD002386F8583073E694F85B30DFF83D
:1045A0004C81002B00F00281D8F85C30002B00F029
:1045B000FD80D5F80090D8F86030C3EB0903632B79
:1045C00040F2F480464E412008F0E8FCB6F90200C3
:1045D0004FF00A0A90FBFAF080B208F01AFDB6F923
:1045E000000090FBFAF080B208F013FDB6F9043039
:1045F00093FBFAF080B208F00CFD08F013FD98F878
:10460000646016F001063FD02F4B1A689B4612F0EB
:10461000200F00F0A0802D4BDFF8B4801B7813F042
:10462000020F06D098F80030042B8CBF0326022618
:1046300000E00126DFF8B8A0472008F0AFFCDAF868
:10464000000008F0D5FCDAF8040008F0D1FC254B96
:104650004FF0640A1888B0FBFAF0C0B208F0B6FC5C
:10466000DBF8003013F0140F02D01F4B186803E082
:10467000184B18880AFB00F008F0BAFC98F80030D4
:1046800046EA8300C0B262E00E4B1B88DA0532D4E2
:10469000DE060DD498060DD459060DD41A070DD494
:1046A000DE0727D413F0020F0CBF0126032622E0F9
:1046B0000D2620E009261EE004261CE008261AE04C
:1046C000E83C0020AC190020300C0020D90B002061
:1046D000CE20002038160020301600209003002045
:1046E000AE1900203A160020E81B0020301D0020E3
:1046F000E42000200226C04B93F80080BF4BC8F393
:104700008008DB781BB148F002085FFA88F8532074
:1047100008F044FCBA4B188800EB800000EB8000E6
:10472000800080B208F075FC002008F072FCB54BE8
:10473000FE201B88584340F2FF3390FBF3F0C0B2D9
:1047400008F044FC002008F041FC48EA860008F02C
:104750003DFC08F067FC94F86460D6B9DFF8CC82C1
:104760004F2008F01BFCD8F8000008F041FCD8F8F6
:10477000040008F03DFC304608F03AFC012008F047
:1047800025FCA14B187800F0010008F01FFC08F090
:1047900049FC94F864200A230132D2B2B2FBF3F14F
:1047A00003FB1123C4F8609084F8643094F86530FA
:1047B000DFF87C82002B00F01F83D8F86830002BD4
:1047C00000F01A8308F01BFAD8F86C2044F61F6337
:1047D000821A9A42064640F20F83022004F046F8FD
:1047E000002800F08680894B49F607411A6848F690
:1047F000034312F0080F18BF0B46500744BF43F4A1
:10480000005343F0080391063A6848BF43F48043DD
:104810007F4948BF43F0200312F0020791F806E0F9
:10482000C3F309088C4608D07549088800EB80005E
:1048300000EB8000800080B200E0384612054ABFDD
:10484000744A4FF6FF7132F83E10D7B1724A9CF8A5
:1048500001E017786A4A9CF800C012884FF064099A
:1048600007FB1E22CEEB0C0E09FB02F207FB0EF734
:10487000B2FBF7F24A45A8BF4A4622EAE272D2B238
:1048800000E06422029303930023ADF81430ADF8E6
:104890001A30ADF81C30ADF81E30ADF82030ADF850
:1048A0002230ADF824305D4B8DF82620CDF81080F5
:1048B000ADF81600ADF8181002AA0DF1200E17463B
:1048C00003CF7745186059603A4603F10803F6D1E3
:1048D00038681860BA79B9881F209A7199800123C5
:1048E0007C2184F8773004F0F5FE04F0DDFE04F05E
:1048F000C9FE032003F0BAFF002863D0484BD5F867
:1049000000A01B78002B00F04783464A012BB2F829
:1049100000C040F24283022BB2F802E000F03F8375
:10492000032BB2F8048000F03C83042BD78800F0FE
:104930003983052BB2F8089000F03683062B508996
:1049400000F03383072B918914BFD38900232D4AAC
:1049500040F2FF3B1288ADF81A30C2EB022200236E
:1049600092FBFBF28DF81C302C4BADF80EE08DF86D
:104970001D20CDF808A0ADF80CC0ADF81080ADF842
:104980001270ADF81490ADF81600ADF8181002AA28
:104990000DF1180E174603CF7745186059603A4657
:1049A00003F10803F6D13868F4211860BA8816209C
:1049B0009A80232384F8773004F08CFE04F074FE90
:1049C00004F060FE062003F051FF002800F0E480B0
:1049D0000E4B1A68984612F0200F00F0DD800A4B4B
:1049E0001B7813F0020F104B24D01A78042A8CBFC6
:1049F000032702271FE000BFE83C0020100D002025
:104A00003016002056200020D90B0020300C00204A
:104A1000980800202016002090030020A81D0020E8
:104A2000380D0020280E0020CE200020D0200020AD
:104A3000301D00200127019308F0E1F8DFF8A0E223
:104A40004FF47A7BBEF80020019B0BFB02FB994AD6
:104A50009949B2F800A0994A93F800C0B2F80090C2
:104A600000230246CDE902234B680A6805934FF6FE
:104A7000FF7309EB8909ADF81C30ADF81E30904B7F
:104A80004FEA4909049202AACDF818B0ADF820A067
:104A9000ADF822908DF824708DF825C0F2460DF106
:104AA000200C17468B4699469646BEE80300E6451D
:104AB00018605960724603F10803F5D11068182197
:104AC000186092881E209A8084F8771004F002FE05
:104AD00004F0EAFD04F0D6FD08F091F8BAF80030D1
:104AE0004FF47A725A43D8F80030844613F0140F0A
:104AF000DBF800E0DBF8040004D0724B0A211B68ED
:104B00004B4300E0134670490693B1F9048000233B
:104B10000A2198FBF1F1ADF81C30ADF81E30ADF86C
:104B20002030674BCDF808C0CDF80CE0049005921A
:104B3000ADF82210BE460DF1200C724603CA624544
:104B400018605960964603F10803F6D11068682191
:104B5000186021231C2084F8773004F0BBFD04F09A
:104B6000A3FD04F08FFD594B5A681B680392029312
:104B70000023049303CFA06738683123C9F80410D9
:104B8000C9F8080027210C2084F8773004F0A2FD32
:104B900004F08AFD04F076FD0A2003F067FE002889
:104BA00045D02F68484DB5F9000011F01BF8484971
:104BB00011F020F9474911F069F88146B5F9020072
:104BC000404211F00FF8424911F014F9414911F037
:104BD0005DF88046B5F9040011F004F83C4911F085
:104BE00009F93C4911F052F8002306930793089302
:104BF000334B0297CDF80C90CDF81080059002ADA4
:104C000008AF2A4603CABA4218605960154603F134
:104C10000803F6D11068272118601E231C2084F891
:104C2000773004F057FD04F03FFD04F02BFD0B201E
:104C300003F01CFE002800F0DE80274B00251F68D3
:104C400017F020090BD01B4B188810F049FC0022EC
:104C5000224B10F0D5FD10F0BBFE804600E0A846C8
:104C600017F0140F0AD0174B186810F039FC002207
:104C70001A4B10F0C5FD10F0ABFE08E0B9F1000FC3
:104C800004D0174B188810F0A9FF00E000200E4B4D
:104C9000B3F904200A2392FBF3F2124B92B2B3F958
:104CA0000630B3F57A7F1FDBB3F5FA6FA8BF4FF478
:104CB000FA631BE03A160020E42000203C16002096
:104CC000A81D0020E81B0020AE190020D0200020E5
:104CD0000000204135FA8E3C300C00200000594085
:104CE00038160020280E00204FF47A73ADF81820F3
:104CF000A3F57A73642253434FF47A7293FBF2F371
:104D0000ADF81A30AC4B02AACDF80C800295049095
:104D100005950DF1180E90461F46154603CD7545B5
:104D2000186059602A4603F10803F6D12868186014
:104D300014204A23014684F8773004F0CBFC04F0B9
:104D4000B3FC04F09FFC9D4B93F800909C4B09F042
:104D500004091B7809F0FF02013BDBB2B9F1000F37
:104D600014BF4FF0C0094FF04009102B97BF954971
:104D70004FF0000A5B1893F808A0934B1B88980724
:104D800016BF0025012549F0100913F4027F18BF52
:104D9000022513F0100F18BF062513F0200F18BFBF
:104DA000102532B1894BDB78002B0CBF042305237F
:104DB00005E006F087FC00280CBF03230223002235
:104DC000029503258DF80D208DF80F308DF80CA07D
:104DD0008DF80E908DF81050434603CBA067796094
:104DE0003D723221092084F8772004F073FC04F02E
:104DF0005BFC04F047FCE66694F88031002B00F081
:104E0000D780D4F88401724D08F025F8002800F00E
:104E1000CF80D5F8840108F014F895F8886107462A
:104E20001EB1013E85F88861EBE7032205F2891087
:104E300005F5C57113F0B5FC95F8893195F88A210F
:104E400083F47F4383F0FF039B1A9BB2B7EB132FCE
:104E500085F88C7105D195F88B11DEB2711A4E422E
:104E60004E41F307CDD55B4B02F00F00197809B91D
:104E700000B118701B78984206D3C11AC9B2022932
:104E80008CBF0021012100E000210029B9D002F0EF
:104E9000F002802A09D160F07F0004238DF8090018
:104EA0008DF8083002A8022113E0902A14D10622BE
:104EB0008DF8082060F06F02C01A424B8DF809206F
:104EC00003445B7E02A88DF80A3002238DF80B3074
:104ED000042108F023F894E7A02A92D1394AC31A92
:104EE00013445B7E022B18D0032B09D0012B88D1F1
:104EF00023690A22591D91FBF2F101F5C8710AE0FC
:104F0000354B0A211B88594394F88D311BB1334B23
:104F10001B7891FBF3F189B201E0314BD98808F09D
:104F200029F86EE798F8023023B16E6388F8029092
:104F3000FFF7B5B86B6BF31AB3F57A6FFFF4AFA850
:104F40000123A86B88F8023007F07BFF8046A86B2E
:104F500007F077FF18F07F0F7FF4A1A88A2803D00D
:104F60008E280DD0FFF79BB81E4B1B6899067FF566
:104F700096A895F83130002B7FF491A81A4B05E0E4
:104F800095F83130002B7FF48AA8184BEB632D2362
:104F900085F84030FFF783B89C464FF0000E4FF085
:104FA000000800274FF00009002000210B46CEE446
:104FB0000BB0BDE8F08F00BFA81D0020E83C00202A
:104FC00074080020ACA90108AC190020100D0020C5
:104FD000301D00208913002030160020900300208F
:104FE000D8190020300C00203D13002011130020A0
:104FF0002DE9F04F9A499B4C0A68267902F59C43AB
:10500000203387B02360A6B1A3689A4240F2FE80A5
:10501000013E2671FAE0072D96BF934A2946A95C06
:105020005B6892489847032D0AD904EB4505A8838D
:1050300001368E4BF5B21A78AA421A46EBD81DE01B
:105040000028F2D08A4B4FF47A7103EB850233F8D3
:1050500025305288C01A4843D31A90FBF3F0084415
:1050600040F6C903984205DC40F2EE239842B8BFEF
:10507000184601E040F6CA0080B2D6E77D4B42F206
:10508000010A1B6803EA0A0ADAF1010A7A4B38BFFF
:105090004FF0000AD3F800B0BAF1000F06D194F82F
:1050A000413084F84030754B5978197094F840704D
:1050B0001FB1724B1F7887F001070F2384F842302D
:1050C000694B92F80090D98A1B8B029103936C4B29
:1050D000032193F800806B4EB8FBF1F101EB410125
:1050E000C1EB0801C9B2490000254D4550DA1FB196
:1050F000654B33F8150000E03846029A904205D31C
:10510000039B98428CBF0022012200E000225F4BEB
:10511000EAB953F825309B4503D25D4B33F81500AF
:1051200019E0EBB218460191009306F0F1FE009BE6
:105130000199032B0FD84FF0010C0CFA05FC494BD9
:1051400093F842E02EEA0C0E83F842E003E00BF500
:10515000967243F82520BAF1000F13D1414B7052DB
:1051600093F88C202AB9B8F1020F0BD9012083F8EB
:105170008C00338870881844B388184480B20323A5
:10518000B0FBF3F0424B063623F815000135ACE7CF
:1051900094F84210384AB1F10F0EDEF1000151EBE4
:1051A0000E0184F88D103B4B91B13B4909684F01CA
:1051B00003D530490968CE050AD412689A60DB68C5
:1051C000D21AC82A1ED9334B012283F8212019E0B4
:1051D0002A4901201268487008709968DA605B6893
:1051E000521A9A4203D92B4B002283F82120002522
:1051F0004D4507DAE8B206F08BFE254B23F8150083
:105200000135F5E71E4B1A7801321A70194E3368D2
:10521000DD0405D5204B1B68D80701D40AF089FEB0
:10522000114B0F4DD87A2F68002839D0184B0E49F2
:10523000013833F810004B7B1BB1C0F53B600830E0
:1052400080B200B2A0F57A70B0F57A7FA8BF4FF4B3
:105250007A7020EAE07010F0C5FC10495DE000BFF4
:10526000C03C0020C81F002030060020380D002060
:10527000D41F0020C4050020B83C002052030020A9
:10528000440D00200C200020E41F00204C0E0020C4
:10529000280E0020100D0020081A002000007A447B
:1052A0003368190442D5D4F89020A84BBA1A002AC2
:1052B0003CDB07F59C422032C3F89020A44AA54D60
:1052C000517AA54A32F811102A7B89B291FBF2F18A
:1052D00093F89420013202F00F0283F894201344D3
:1052E00083F8951003469D4A825C013013441028D0
:1052F0009BB2F8D11BB2974993FBF0F000B24B7B05
:105300006428A8BF642020EAE0700BB1C0F16400FB
:1053100080B200B210F066FC914910F06BFD91492B
:1053200010F0B4FC10F09EFEA4F88E0033688E4D91
:1053300013F4807F00F0ED808C4B9F428C4F03D99B
:10534000BA780AB90122BA70BA78002A00F0E1806E
:10535000874A95F8009092F82130C9F380095A1EC7
:1053600053425341834A002B11680293C1F3806A70
:1053700093460CBF4FF003084FF0000897F8202029
:10538000052A00F2C080DFE802F003495C8390AA9E
:10539000B9F1000F35D0784A1268D08806F098FD30
:1053A000012807D1754A64201168B4F8AA2000FBCF
:1053B00002123A61BAF1000F0AD094F8A9203AB16A
:1053C00005F026F9032287F820204FF47A7236E0A0
:1053D0000299002940F09780684A39691068644A48
:1053E00088420AD9019205F013F9019A032182F843
:1053F000201040F6B831D161C0E7012182F82010B9
:10540000BCE74FF48060BAF1000F02D005F0F0F86D
:1054100001E005F01BF900223A6174E0029A002ACB
:1054200055D194F8AC20012A02D005F0F1F8A5E797
:1054300005F0EEF8032287F8202040F6B832FA6132
:105440009CE7029B23B1052287F82020012000E081
:105450000298B9F1000F0ED03E4A4FF00208118AAF
:10546000474A11805180918094F8A71094F8A8E0E1
:1054700041EA0E21D180414A11687A69914202D8ED
:10548000B9F1000F3CD147F23052FA6103221FE01C
:105490002A7842F002022A700AF04BFD374A11685E
:1054A000FA690A44BA61042212E0344A029B116884
:1054B0008BB1BA69914226D9324A12781AB9DBF80F
:1054C0000020D3071FD42A7822F002022A70052276
:1054D00087F8202052E7FA690A44BA6113E0274AA4
:1054E00064201168B4F8AA2000FB02124FF4806017
:1054F0003A61002287F82020FA7005F0A7F83DE70E
:1055000000287FF43BAFB8F1000F02D0404604F012
:1055100019FF194B1B68D88806F0DAFC80460D4845
:10552000038A174803F10B01B0F902208346914228
:105530002ADB0B3B934227DCB0F90020914223DBAE
:105540009342CCBF002301231FE000BFC81F0020EF
:10555000DB0B002030060020EC0B00205D2000203B
:105560000000C84200C07F44E83C0020404B4C0093
:10557000100D0020081A0020341B0020B83C002029
:10558000280E00204C0300200023B8F1000F1DD18D
:10559000A14A126817010CD4A04B00210022C4F8C4
:1055A000B0101A60C4F8B4105A60C4F8B8109A6009
:1055B00011E09B4AD278002AEED12A785007EBD529
:1055C00023B1984B1A7842F0200203E0954B1A78E9
:1055D00022F020021A702B78934F13F0040F42D060
:1055E0003368D9063FD58F4B1B78DA063BD48F4BF7
:1055F00093F80090B9F1000F11D094F8BE30B8F1D3
:10560000000F16D173B18A4B1A68D7F8C0309B1AB5
:10561000002B07DA0AF08DFC87F8C48023E0B8F18C
:10562000000F19D1102004F08DFE012387F8C4303B
:1056300019E03BB17E4A4FF47A71126801FB0323F3
:10564000C7F8C03094F8C4306BB104F05AFE764B02
:10565000002283F8C42006E094F8C4301BB104F0A3
:1056600050FE87F8C4907349002294F8BCA094F8C7
:10567000BD00B1F812E0B1F814C013463BF90210B6
:105680009B087145C4BF63F07F03DBB20232614502
:10569000B8BF43F04003082AF0D194F8C510624A1D
:1056A000994205D192F8C610F92904D8013100E0D9
:1056B000002182F8C61084F8C5305C4B1A789946F0
:1056C000EAB9554B1B68DB0708D5B8F1000F16D1B6
:1056D0002B78D90713D50EF079FF10E02B785A07F5
:1056E0000DD5514B93F840304BB14D4BDB7833B96E
:1056F00010B10AF01EFC02E0B8F1000FF9D094F8E6
:10570000C630DFF82481142B40F0A58099F80030D2
:105710001AF1000A18BF4FF0010A4BB398F8C530D0
:105720005F2B0FD12B7803F0040303F0FF0213B1BA
:105730000AF0FFFB06E00B20019204F003FE019A41
:1057400088F8C620BAF1000F12D094F8C5307D2B2E
:105750000ED12B7803F0040303F0FF0813B10AF015
:10576000E8FB05E00B2004F0EDFD2F4B83F8C6802D
:105770002B7803F0040303F0FF00002B6BD194F8A7
:10578000C530294A572B0FD12B4B4FF47A721A8010
:1057900033681B0601D503F073F9284B1B685807C3
:1057A00059D50A22264B34E03168490717D55A2BC0
:1057B00015D192F8C7302BB1012382F8C70082F8C7
:1057C000C83048E092F8C93083F0010382F8C9304C
:1057D0000BB10C2000E00D2004F0B4FD3BE05D2B8C
:1057E00000F0EC845B2B00F0EB845E2B02D10320F5
:1057F00000F0E7BC562B01D10EF08EF899F800307E
:1058000013BB94F8C530972B40F0F0840D4B4FF448
:10581000C8721A801FE000BF081A0020FC1900207F
:10582000100D0020D90B0020C81F00204C030020C1
:10583000B83C002030060020A0130020300C0020CF
:10584000E03C00209E13002094F8C5306F2B40F000
:10585000C4840EF0BBFE33685B0737D594F8C930BB
:10586000A849A94A93B12B7858070FD5A74BBBF984
:105870000600B3F812E0704508DD136813F0010369
:1058800004D13220A1F8CA0081F8C930136813F49A
:10589000803F9C4B0CD094F8CC202AB993F8C720B9
:1058A00012B93222A3F8CA20012387F8CC300DE0C8
:1058B00094F8C72052B12A7802F0040202F0FF01E6
:1058C00022B9012283F8C71083F8C820904B002525
:1058D0001F68A8460237B94609EB050319F80520E9
:1058E0005B7817F8010C9A420AD2394606F06AFC36
:1058F00030B117F8023C012202FA03F348EA030828
:105900000435502D07F10407E6D17F4BC3F8008022
:10591000804B1F784FB17C4FDFF810923B687E4D73
:1059200013F0020F40F0EB81E3E1D4F8D08008F1EE
:105930000105A94609EB070319F807205B7808EB76
:10594000070A9A4215F8010C29D2294606F03AFCBA
:1059500028B329790C204843DFF8D4E10EEB00038B
:105960009A6852451BD0C3F808A0EA780EF80020C8
:1059700000205860AA785A70AA780C2A4FF00102C9
:1059800004BF9A700322DA7018BF9870012303FADB
:1059900001F194F8043123EA010184F80411063777
:1059A000482F05F10605C5D15C4B94F84050D3F85B
:1059B00000A05B4B4FF000081B6803950293C146A3
:1059C000504A02F1D40343445F78002F00F08881ED
:1059D0005968029D691A00290BDB05F5FA715960B7
:1059E000012101FA09F192F8040120EA010182F88B
:1059F0000411039D002D00F07381424A987802F152
:105A0000D40118F801100431C9B2002840F02681F1
:105A100044483E4D30F91110288A00F1C805A942CA
:105A200001DDDD7813E0C838814202DADD786D42AD
:105A30000DE0012101FA09F192F80401029D20EA2A
:105A4000010182F8041105F5FA725A6048E194F8F0
:105A5000043143FA09F3DB0700F14281002DCCBF8A
:105A60000220012004F0ACFD7B1E132B00F2858088
:105A7000DFE803F00A0F19233339607083838383CF
:105A8000232D396070446B7B504601212A46FA234E
:105A900004E00AF1010002212A4664230AF03AFADE
:105AA00002F08EFE14E10AF1030003212A4664236A
:105AB0000AF030FA02F022FE0AE10AF105000D2197
:105AC0002A4664230AF026FA0D2F00F001810AF11C
:105AD00004000E212A4664234DE00AF10600052148
